:020000040800F2
:1000000000000120C50400080D0500080D050008CA
:100010000D0500080D0500080D0500080000000092
:100020000000000000000000000000000D050008B6
:100030000D050008000000000D050008A1020008E1
:100040000D0500080D0500080D0500080D05000848
:100050000D0500080D0500080D0500080D05000838
:100060000D0500080D0500080D0500080D05000828
:100070000D0500080D0500080D0500080D05000818
:100080000D0500080D0500080D0500080D05000808
:100090000D0500080D0500080D0500080D050008F8
:1000A0000D0500080D0500080D0500080D050008E8
:1000B0000D0500080D0500080D0500080D050008D8
:1000C0000D0500080D0500080D0500080D050008C8
:1000D0000D050008D10300080D0500080D050008F6
:1000E0000D0500080D0500080D0500080D050008A8
:1000F0000D0500080D0500080D0500080D05000898
:100100000D0500080D0500080D0500080D05000887
:100110000D0500080D0500080D0500080D05000877
:100120000D0500080D0500080D0500080D05000867
:1001300000000000000000000000000000000000BF
:1001400000000000000000000000000000000000AF
:10015000000000000000000000000000000000009F
:10016000000000000000000000000000000000008F
:10017000000000000000000000000000000000007F
:10018000000000000000000000000000000000006F
:10019000000000000000000000000000000000005F
:1001A000000000000000000000000000000000004F
:1001B000000000000000000000000000000000003F
:1001C000000000000000000000000000000000002F
:1001D000000000000000000000000000000000001F
:0401E0005FF8E0F1F3
:1001E40010B5054C237833B9044B13B10448AFF36D
:1001F40000800123237010BD0000002000000000D7
:100204005805000808B5034B1BB103490348AFF375
:10021400008008BD0000000004000020580500080C
:100224004FF0E0231A6922F004021A610A49C00857
:1002340008701A6942F002021A6103F55063F02251
:1002440083F823200B78C3EB431203EB8203DB0018
:10025400024A1380704700BF2200002020000020C3
:100264000C4B18604FF0E02300229A610A4A12886E
:100274005A611A6942F001021A61064B1B68002B8D
:10028400FBD14FF0E0231A6922F001021A61002227
:100294009A6170471C00002020000020034B1B685B
:1002A40013B1013B014A1360704700BF1C000020DA
:1002B40082B00023019300932C4A136843F48033E3
:1002C40013602A4B1B6803F400330093019B013332
:1002D4000193009B1BB9019BB3F5A06FF1D1234B94
:1002E4001B6813F4003F06D001230093009B012BED
:1002F40004D002B0704700230093F7E71C4B1A6840
:1003040042F010021A601A6822F003021A601A6896
:1003140042F002021A60A3F580535A685A605A6880
:100324005A605A6842F480625A605A6822F47C1215
:100334005A605A6842F4E8125A601A6842F08072AD
:100344001A600A4B1B6813F0007FFAD0074B5A68F7
:1003540022F003025A605A6842F002025A60034BC8
:100364005B6803F00C03082BF9D1C2E700100240CC
:100374000020024008B5FFF79BFF08BD08B5104BED
:100384001A6842F001021A6059680E4A0A405A601B
:100394001A6822F0847222F480321A601A6822F4F5
:1003A40080221A605A6822F4FE025A604FF41F0237
:1003B4009A60FFF7DFFF044B4FF000629A6008BDBC
:1003C400001002400000FFF800ED00E0184B1B880D
:1003D40013F0200F26D0164B9B88DBB215490A88F0
:1003E400B1F9001000291DDB12F4804F0CD00A2B48
:1003F40003D0104B00221A8070476FEA42426FEA22
:1004040052420C4B1A8070470D2B0CD0C2F30D01D5
:1004140009484354013292B2064B1A80C72A01D9C3
:1004240000221A80704742F48042024B1A807047BF
:1004340000380140EC0000202400002008B500F042
:1004440017F84820FFF7ECFE084AD2F89431DB4352
:10045400C2F8943102F5C032D2F89431DB43C2F8C9
:1004640094314FF4FA70FFF7FBFEEDE70080214270
:10047400124B9A6942F008029A619A6942F040026A
:100484009A61A3F582331A6822F470021A601A681A
:1004940042F440121A60DA6842F02002DA6003F58E
:1004A40040631A6822F470021A601A6842F4401217
:1004B4001A60DA6842F02002DA60704700100240E5
:1004C400002103E00B4B5B58435004310A480B4BAB
:1004D40042189A42F6D30A4A02E0002342F8043B47
:1004E400084B9A42F9D3FFF749FF00F00FF8FFF7E2
:1004F400A5FF7047780500080000002000000020D8
:1005040000000020F0000020FEE7000070B5002687
:100514000C4D0D4C641BA410A64209D100F01AF82E
:1005240000260A4D0A4C641BA410A64205D170BDD6
:1005340055F8043B98470136EEE755F8043B9847D5
:100544000136F2E770050008700500087005000820
:1005540074050008F8B500BFF8BC08BC9E46704797
:0C056400F8B500BFF8BC08BC9E4670470C
:040570000902000874
:04057400E501000895
:04000005080004C526
:00000001FF
